:020000040800F2
:1000000000000120CD1900081D1A00081D1A000863
:100010001D1A00081D1A00081D1A00080000000023
:100020000000000000000000000000001D1A000891
:100030001D1A0008000000001D1A00081D1A000803
:10004000000000001D1A00081D1A00081D1A0008F3
:100050001D1A00081D1A00081D1A00081D1A0008A4
:100060001D1A00081D1A00081D1A000800000000D3
:100070000000000000000000000000000000000080
:1000800000000000000000001D1A00080000000031
:100090000000000000000000000000001D1A000821
:1000A0001D1A00081D1A00081D1A00081D1A000854
:1000B0004B1800081D1A0008000000001D1A000857
:1000C0001D1A00081D1A00081D1A00081D1A000834
:1000D0001D1A0008000000000000000000000000E1
:1000E0001D1A00081D1A00081D1A00080000000053
:1000F0000000000000000000000000000000000000
:10010000000000001D1A0008000000001D1A000871
:1001100000000000000000000000000000000000DF
:1001200000000000000000000000000000000000CF
:1001300000000000000000000000000000000000BF
:100140000000000000000000000000001D1A000870
:10015000000000000000000000000000000000009F
:100160001D1A00081D1A0008000000000000000011
:10017000000000000000000000000000000000007F
:10018000000000001D1A0008000000000000000030
:040190001D1A00082C
:1001980010B5054C237833B9044B13B10448AFF3B9
:1001A80000800123237010BD84040020000000009B
:1001B800841B000808B5034B1BB103490348AFF380
:1001C800008008BD0000000088040020841B00088F
:1001D80081F0004102E000BF83F0004330B54FEAF0
:1001E80041044FEA430594EA050F08BF90EA020F5D
:1001F8001FBF54EA000C55EA020C7FEA645C7FEAF0
:10020800655C00F0E2804FEA5454D4EB5555B8BF12
:100218006D420CDD2C4480EA020281EA030382EA83
:10022800000083EA010180EA020281EA0303362D15
:1002380088BF30BD11F0004F4FEA01314FF4801CE8
:100248004CEA113102D0404261EB410113F0004FFA
:100258004FEA03334CEA133302D0524263EB4303B1
:1002680094EA050F00F0A780A4F10104D5F1200E4F
:100278000DDB02FA0EFC22FA05F2801841F10001AA
:1002880003FA0EF2801843FA05F359410EE0A5F17E
:1002980020050EF1200E012A03FA0EFC28BF4CF0AF
:1002A800020C43FA05F3C01851EBE37101F0004565
:1002B80007D54FF0000EDCF1000C7EEB00006EEB72
:1002C8000101B1F5801F1BD3B1F5001F0CD34908FC
:1002D8005FEA30004FEA3C0C04F101044FEA445253
:1002E80012F5800F80F09A80BCF1004F08BF5FEADA
:1002F800500C50F1000041EB045141EA050130BDBA
:100308005FEA4C0C404141EB010111F4801FA4F15C
:100318000104E9D191F0000F04BF01460020B1FAB1
:1003280081F308BF2033A3F10B03B3F120020CDAE9
:100338000C3208DD02F1140CC2F10C0201FA0CF0C7
:1003480021FA02F10CE002F11402D8BFC2F1200C2C
:1003580001FA02F120FA0CFCDCBF41EA0C019040E2
:10036800E41AA2BF01EB0451294330BD6FEA04042B
:100378001F3C1CDA0C340EDC04F11404C4F1200216
:1003880020FA04F001FA02F340EA030021FA04F328
:1003980045EA030130BDC4F10C04C4F1200220FA7F
:1003A80002F001FA04F340EA0300294630BD21FABD
:1003B80004F0294630BD94F0000F83F4801306BF83
:1003C80081F480110134013D4EE77FEA645C18BF77
:1003D8007FEA655C29D094EA050F08BF90EA020F0E
:1003E80005D054EA000C04BF1946104630BD91EA06
:1003F800030F1EBF0021002030BD5FEA545C05D109
:100408004000494128BF41F0004130BD14F5800447
:100418003CBF01F5801130BD01F0004545F0FE41BB
:1004280041F470014FF0000030BD7FEA645C1ABFF0
:10043800194610467FEA655C1CBF0B46024650EA27
:10044800013406BF52EA033591EA030F41F4002153
:1004580030BD00BF90F0000F04BF0021704730B5D9
:100468004FF4806404F132044FF000054FF00001AE
:1004780050E700BF90F0000F04BF0021704730B56F
:100488004FF4806404F1320410F0004548BF404244
:100498004FF000013EE700BF42004FEAE2014FEA99
:1004A80031014FEA02701FBF12F07F4393F07F4F74
:1004B80081F06051704732F07F4208BF704793F077
:1004C8007F4F04BF41F40021704730B54FF460748A
:1004D80001F0004521F000411CE700BF50EA01028D
:1004E80008BF704730B54FF000050AE050EA010236
:1004F80008BF704730B511F0004502D5404261EBA6
:1005080041014FF4806404F132045FEA915C3FF4E6
:10051800D8AE4FF003025FEADC0C18BF03325FEA83
:10052800DC0C18BF033202EBDC02C2F1200300FA34
:1005380003FC20FA02F001FA03FE40EA0E0021FA59
:1005480002F11444BDE600BF70B54FF0FF0C4CF447
:10055800E06C1CEA11541DBF1CEA135594EA0C0FF9
:1005680095EA0C0F00F0DEF82C4481EA030621EA34
:100578004C5123EA4C5350EA013518BF52EA03356F
:1005880041F4801143F4801338D0A0FB02CE4FF021
:100598000005E1FB02E506F00042E0FB03E54FF051
:1005A8000006E1FB03569CF0000F18BF4EF0010E49
:1005B800A4F1FF04B6F5007F64F5407404D25FEA45
:1005C8004E0E6D4146EB060642EAC62141EA5551F8
:1005D8004FEAC52040EA5E504FEACE2EB4F1FD0C3A
:1005E80088BFBCF5E06F1ED8BEF1004F08BF5FEAB8
:1005F800500E50F1000041EB045170BD06F000466A
:1006080046EA010140EA020081EA0301B4EB5C0416
:10061800C2BFD4EB0C0541EA045170BD41F480110E
:100628004FF0000E013C00F3AB8014F1360FDEBF33
:10063800002001F0004170BDC4F10004203C35DA0F
:100648000C341BDC04F11404C4F1200500FA05F392
:1006580020FA04F001FA05F240EA020001F0004233
:1006680021F0004110EBD37021FA04F642EB0601A9
:100678005EEA430E08BF20EAD37070BDC4F10C04D3
:10068800C4F1200500FA04F320FA05F001FA04F297
:1006980040EA020001F0004110EBD37041F1000183
:1006A8005EEA430E08BF20EAD37070BDC4F120058E
:1006B80000FA05F24EEA020E20FA04F301FA05F2F6
:1006C80043EA020321FA04F001F0004121FA04F29E
:1006D80020EA020000EBD3705EEA430E08BF20EA6E
:1006E800D37070BD94F0000F0FD101F000464000A8
:1006F80041EB010111F4801F08BF013CF7D041EA2A
:10070800060195F0000F18BF704703F0004652002D
:1007180043EB030313F4801F08BF013DF7D043EAFE
:100728000603704794EA0C0F0CEA135518BF95EAB4
:100738000C0F0CD050EA410618BF52EA4306D1D13B
:1007480081EA030101F000414FF0000070BD50EA5A
:10075800410606BF1046194652EA430619D094EAE4
:100768000C0F02D150EA013613D195EA0C0F05D1CE
:1007780052EA03361CBF104619460AD181EA030122
:1007880001F0004141F0FE4141F470014FF00000DA
:1007980070BD41F0FE4141F4780170BD70B54FF075
:1007A800FF0C4CF4E06C1CEA11541DBF1CEA1355F5
:1007B80094EA0C0F95EA0C0F00F0A7F8A4EB0504D7
:1007C80081EA030E52EA03354FEA013100F08880CE
:1007D8004FEA03334FF0805545EA131343EA126397
:1007E8004FEA022245EA111545EA10654FEA00264C
:1007F8000EF000419D4208BF964244F1FD0404F505
:10080800407402D25B084FEA3202B61A65EB030560
:100818005B084FEA32024FF480104FF4002CB6EB1D
:10082800020E75EB030E22BFB61A754640EA0C009D
:100838005B084FEA3202B6EB020E75EB030E22BFDD
:10084800B61A754640EA5C005B084FEA3202B6EB1E
:10085800020E75EB030E22BFB61A754640EA9C00DD
:100868005B084FEA3202B6EB020E75EB030E22BFAD
:10087800B61A754640EADC0055EA060E18D04FEA6B
:10088800051545EA16754FEA06164FEAC30343EA0B
:1008980052734FEAC2025FEA1C1CC0D111F4801FD8
:1008A8000BD141EA00014FF000004FF0004CB6E7D1
:1008B80011F4801F04BF01430020B4F1FD0C88BF70
:1008C800BCF5E06F3FF6AFAEB5EB030C04BFB6EB7B
:1008D800020C5FEA500C50F1000041EB045170BD6E
:1008E8000EF0004E4EEA113114EB5C04C2BFD4EB9B
:1008F8000C0541EA045170BD41F480114FF0000E1F
:10090800013C90E645EA060E8DE60CEA135594EA9A
:100918000C0F08BF95EA0C0F3FF43BAF94EA0C0F9D
:100928000AD150EA01347FF434AF95EA0C0F7FF412
:1009380025AF104619462CE795EA0C0F06D152EA66
:1009480003353FF4FDAE1046194622E750EA41064A
:1009580018BF52EA43067FF4C5AE50EA41047FF45B
:100968000DAF52EA43057FF4EBAE12E74FEA4102BE
:10097800B2F1E04324BFB3F5001CDCF1FE5C0DD9F5
:1009880001F0004C4FEAC0024CEA5070B2F1004F3F
:1009980040EB830008BF20F00100704711F0804F42
:1009A80021D113F13872BCBF01F00040704741F407
:1009B80080114FEA5252C2F11802C2F1200C10FA0B
:1009C8000CF320FA02F018BF40F001004FEAC123EF
:1009D8004FEAD32303FA0CFC40EA0C0023FA02F393
:1009E8004FEA4303CCE77FEA625307D150EA013369
:1009F8001EBF4FF0FE4040F44000704701F0004039
:100A080040F0FE4040F40000704700BF80B582B05F
:100A180000AF002301220021154800F0B5FC002397
:100A280001220121124800F0AFFC0023012202211B
:100A38000F4800F0A9FC00237B6009E07B68D9B26D
:100A4800002301220B4800F09FFC7B6801337B6088
:100A58007B68072BF2DD382000F00EF80C2000F040
:100A68000BF8012000F008F800BF0837BD4680BD2C
:100A7800000002400004024080B588B000AF034681
:100A8800FB7100220121334800F08CFD0022002177
:100A9800304800F087FD0023FB6102E0FB69013369
:100AA800FB61FB6941F287329342F7DD0023BB61AA
:100AB80002E0BB690133BB61BB6941F287329342F3
:100AC800F7DD01220221234800F06CFD00237B6141
:100AD80002E07B6901337B617B6941F28732934293
:100AE800F7DD00233B6112E03B69D9B201223B6983
:100AF80002FA03F35AB297F9073013405BB2DBB23C
:100B08001A46154800F04EFD3B6901333B613B69CD
:100B1800072BE9DD0023FB6002E0FB680133FB6083
:100B2800FB6841F287329342F7DD0022022109482F
:100B380000F038FD0023BB6002E0BB680133BB60F6
:100B4800BB6841F287329342F7DD00BF2037BD46CC
:100B580080BD00BF000002400004024080B588B09C
:100B680000AF0346FB71002201212D4800F01AFD59
:100B7800012200212A4800F015FD0023FB6102E054
:100B8800FB690133FB61FB6941F287329342F7DD70
:100B980001220221224800F005FD0023BB6102E08A
:100BA800BB690133BB61BB6941F287329342F7DD10
:100BB80000237B6112E07B69D9B201227B6902FACA
:100BC80003F35AB297F9073013405BB2DBB21A4607
:100BD800144800F0E7FC7B6901337B617B69072BD4
:100BE800E9DD00233B6102E03B6901333B613B697E
:100BF80041F287329342F7DD00220221084800F0D3
:100C0800D1FC0023FB6002E0FB680133FB60FB685A
:100C180041F287329342F7DD00BF2037BD4680BDE1
:100C2800000002400004024080B584B000AF786044
:100C38000023FB7309E0FB7B7A6813441B78184692
:100C4800FFF78CFFFB7B0133FB73FB7B7A68134454
:100C58001B78002BEFD100BF1037BD4680BD80B494
:100C680083B000AF78607B684FF000025A627B68FF
:100C78004FF000029A627B684FF00002DA627B68EC
:100C88004FF000021A637B684FF000025A6300BFFE
:100C98000C37BD465DF8047B70470000000000007B
:100CA800B0B584B000AFF86087ED020AC7ED010A5D
:100CB80097ED017AD7ED027A37EE677A224BD3EDBA
:100CC800007A77EE277A204BC3ED007A1E4B1B681B
:100CD8001846FFF7E1FB18A3D3E90023FFF734FC1C
:100CE80003460C4625461C4697ED017AD7ED027A55
:100CF80077EE677A17EE900AFFF7CEFB10A3D3E9D9
:100D08000023FFF721FC02460B4620462946FFF741
:100D180065FA03460C4618462146FFF727FE0246A9
:100D2800FB685A63FB685B6B07EE903AB0EE670AA4
:100D38001037BD46B0BD00BF7B14AE47E17A843F93
:100D48009A9999999999B93FA004002080B584B0DF
:100D580000AF87ED010AD7ED017AB3EE0E7AF4EE13
:100D6800C77AF1EE10FA5ADD3248FFF778FFD7ED6F
:100D7800010AB3EE0E0A2F48FFF792FF87ED030A28
:100D88002D48FFF751FF0023012202212B4800F0D4
:100D9800FBFA00F08BFCD7ED037A9FED297A67EE1A
:100DA800877AFCEEE77AC7ED007A3B68DBB2184633
:100DB80000F01AFDD7ED017AB3EE0E7AF4EE477A19
:100DC800F1EE10FA02D1002000F00EFDD7ED017A05
:100DD800B3EE0E7AF4EEC77AF1EE10FA00D424E0FE
:100DE8001448FFF73CFFD7ED010AB3EE0E0A11488D
:100DF800FFF756FF87ED020A0F48FFF715FFD7EDFB
:100E0800027A9FED107A67EE877AFCEEE77AC7EDF3
:100E1800007A3B68DBB2184600F0E6FC05E0074BB9
:100E28005B69064A23F02003536100BF1037BD46B3
:100E380080BD00BF000000209C1B0008000002408D
:100E480000004842000048C280B483B000AF0346A7
:100E5800FB71FB7903F01F02074997F907305B091B
:100E6800012000FA02F241F8232000BF0C37BD46EA
:100E78005DF8047B704700BF00E100E080B400AF7C
:100E8800104B1B6C0F4A43F0010313644FF080436F
:100E980040F23F621A854FF080436422DA624FF0D5
:100EA800804300225A624FF080431B889BB24FF068
:100EB800804243F001039BB2138000BFBD465DF83A
:100EC800047B70470038024080B500AF4FF0804384
:100ED8009B899BB24FF0804243F001039BB2938100
:100EE8001C20FFF7B1FF00BF80BD80B500AF00F048
:100EF8008BFB00BF80BD000080B400AF534B1B6B61
:100F0800524A43F001031363514B1B68504A23F4C0
:100F1800806313604E4B1B684D4A43F400631360B3
:100F28004B4B1B684A4A23F480531360484B1B6899
:100F3800474A43F400531360454B1B68444A23F463
:100F480080431360424B1B68414A43F400431360DB
:100F58003F4B1B683E4A23F4002313603C4B1B683D
:100F68003B4A43F480231360394B1B6A384A23F009
:100F78002A4323F420031362354B1B6A344A43F097
:100F8800AA4343F4A0031362304B5B6C2F4A43F42B
:100F9800805353642F4B1B889BB22E4A43F0100397
:100FA8009BB213802B4B1B889BB22A4A43F0010348
:100FB8009BB21380274B1B889BB2264A23F002035F
:100FC8009BB21380234B1B889BB2224A23F40063F5
:100FD8009BB213801F4A1F4B128892B21A801D4A77
:100FE8001C4B128892B21A801A4A1A4B128892B273
:100FF8001A80184B1B889BB2164A23F080039BB2B9
:101008001380144B1B889BB2124A43F480739BB223
:101018001380104B1B889BB20E4A43F400739BB29B
:1010280013800C4B1B889BB20A4A43F004039BB203
:101038001380084B1B889BB2064A43F040039BB2BF
:10104800138000BFBD465DF8047B7047003802403E
:10105800000002400030014080B483B000AF034676
:10106800FB710F4B1B899BB203F00203002B10D0BE
:101078000B4BFA7992B29A8100BF094B1B899BB23C
:1010880003F08003002BF8D1054B9B899BB2DBB2A0
:1010980000E0FF2318460C37BD465DF8047B704717
:1010A8000030014080B582B000AF0346FB710021DB
:1010B800802000F004F800BF0837BD4680BD80B529
:1010C80082B000AF03460A46FB711346BB71FB7939
:1010D80063F07F03DBB21846FFF7BEFFBB79184603
:1010E800FFF7BAFF00BF0837BD4680BD80B582B0A4
:1010F80000AF03463960FB71FB7903F07F03DBB275
:101108001846FFF7A9FF0020FFF7A6FF03461A4677
:101118003B681A7000BF0837BD4680BD80B500AF78
:1011280000F018F9FFF772FCFFF7E6FE012208212C
:10113800354800F037FA0020FFF7B4FF00220821F5
:10114800314800F02FFA314B4FF000021A600122AB
:1011580008212D4800F026FA2D490120FFF7C6FF87
:1011680000220821284800F01DFA294B1B785BB2A1
:10117800002B09DA254BD3ED007AB6EE007A77EE2C
:10118800877A224BC3ED007A214B1B7803F040038A
:10119800002B09D01D4BD3ED007AB5EE007A77EE1F
:1011A800877A1A4BC3ED007A01220821164800F00D
:1011B800F9F917490220FFF799FF00220821124880
:1011C80000F0F0F9124B1B785BB207EE903AB8EEDC
:1011D800E77A0E4BD3ED007A77EE277A0B4BC3ED07
:1011E800007A0A4BD3ED007A0A48B0EE670A00F09D
:1011F80013F80848FFF718FD044B1B6807EE903AF0
:10120800B0EE670A80BD00BF00040240A4040020BD
:10121800A80400204400002080B485B000AF87ED0A
:10122800010A3860D7ED017AF5EEC07AF1EE10FACE
:101238000BD53B682D221A703B6801333B60D7ED14
:10124800017AF1EE677AC7ED017AD7ED017A9FED61
:101258003F7A67EE877AFDEEE77A17EE903AFB6001
:10126800FA683B4B83FB02139910D317C91A0B4634
:101278009B000B445B00D11ACAB23B68043330327E
:10128800D2B21A70FB68324A82FB03129210DB1743
:10129800D31AFB60FA682E4B83FB02139910D317FD
:1012A800C91A0B469B000B445B00D11ACAB23B68B3
:1012B80003333032D2B21A703B6802332E221A70CE
:1012C800FB68234A82FB03129210DB17D31AFB60D8
:1012D800FA681F4B83FB02139910D317C91A0B46E0
:1012E8009B000B445B00D11ACAB23B680133303211
:1012F800D2B21A70FB68164A82FB03129210DB17EF
:10130800D31AFB60FA68124B83FB02139910D317A8
:10131800C91A0B469B000B445B00D11ACBB2303381
:10132800DAB23B681A703B6805330D221A703B68C5
:1013380006330A221A703B68073300221A7000BF6E
:101348001437BD465DF8047B704700BF0000C842F3
:101358006766666680B500AF094B1B6B084A43F0A9
:1013680002031363002301220821064800F00CF849
:1013780000220821034800F015F900BF80BD00BF16
:10138800003802400004024080B483B000AF7860A7
:10139800084611461A460346FB700B46BB701346B7
:1013A8007B707B68784A934206D1784B1B6B774AEF
:1013B80043F00103136335E07B68754A934206D115
:1013C800724B1B6B714A43F0020313632AE07B687C
:1013D800704A934206D16D4B1B6B6C4A43F0040371
:1013E80013631FE07B686C4A934206D1674B1B6B03
:1013F800664A43F00803136314E07B68674A934224
:1014080006D1624B1B6B614A43F01003136309E07A
:101418007B68634A934205D15C4B1B6B5B4A43F084
:1014280080031363BB78012B2DD17B681B68FA7886
:101438005200012101FA02F21A437B681A607B68A4
:101448001B68FA7852000132012101FA02F2D243F4
:101458001A407B681A607B78002B09D07B685A6831
:10146800FB78012101FA03F31A437B685A6085E08F
:101478007B685A68FB78012101FA03F3DB431A40C1
:101488007B685A607AE0BB78002B47D17B681B6881
:10149800FA785200012101FA02F2D2431A407B681D
:1014A8001A607B681B68FA7852000132012101FA40
:1014B80002F2D2431A407B681A607B78002B16D060
:1014C8007B68DB68FA785200012101FA02F21A43BC
:1014D8007B68DA607B68DB68FA78520001320121A8
:1014E80001FA02F2D2431A407B68DA6046E07B6870
:1014F800DB68FA7852000132012101FA02F21A433C
:101508007B68DA607B68DB68FA785200012101FAAF
:1015180002F2D2431A407B68DA602FE0BB78022BD4
:101528002CD17B681B68FA785200012101FA02F27B
:10153800D2431A407B681A607B681B68FA785200AD
:101548000132012101FA02F21A437B681A607B68B2
:10155800DB68FA7852000132012101FA02F2D24323
:101568001A407B68DA607B68DB68FA7852000121F0
:1015780001FA02F2D2431A407B68DA6000BF0C37E6
:10158800BD465DF8047B7047000002400038024009
:101598000004024000080240000C02400010024013
:1015A800001C024080B483B000AF78600B46FB702B
:1015B8001346BB707B681B68FA785200012101FA58
:1015C80002F21340002B18D0BB78002B09D07B689F
:1015D8005B69FA78012101FA02F21A437B685A61C1
:1015E80009E07B685B69FA78012101FA02F2D243CB
:1015F8001A407B685A61002300E0012318460C3723
:10160800BD465DF8047B704780B582B000AF124BD1
:101618001B68002B0BD0114B1B68002B07D1FFF761
:101628007DFD87ED010A97ED010AFFF78FFB0B4B54
:101638001B680133094A1360084B1B68084A126883
:1016480093FBF2F102FB01F29B1A044A136000BFFC
:101658000837BD4680BD00BF50000020AC04002004
:101668005400002080B400AF034B01221A6000BF71
:10167800BD465DF8047B70475000002080B483B0FD
:1016880000AF78607B68074A82FB03125211DB17B0
:10169800D31A054A136000BF0C37BD465DF8047BBA
:1016A800704700BF1F85EB515400002080B400AF85
:1016B8004A4B1B6B494A43F001031363484B1B68B1
:1016C800474A03F480331360454B1B68444A43F48C
:1016D80000331360424BDB68414A23F48033D36004
:1016E8003F4BDB683E4A23F40033D3603C4B5B6AD4
:1016F8003B4A43F001035362394B5B6A384A23F093
:101708000E035362354B5B6C344A43F00103536458
:10171800344B1B889BB2334A43F001039BB21380BE
:10172800304B1B889BB22F4A43F080039BB2138037
:101738002C4B1B889BB22B4A23F010039BB21380BF
:10174800284B40F207721A85264B1B8B9BB2254A01
:1017580043F040039BB21383224B1B8B9BB2214A5D
:1017680043F020039BB213831E4B1B8B9BB21D4A75
:1017780023F010039BB213831A4B1B8C9BB2194A9C
:1017880023F002039BB21384164B9B8A9BB2154A23
:1017980043F001039BB29382124B1B8C9BB2114AFC
:1017A80043F001039BB213840E4BB3F844309BB251
:1017B8000C4A6FEA43436FEA53439BB2A2F84430A2
:1017C800084B1B889BB2074A43F001039BB2138066
:1017D80000BFBD465DF8047B704700BF003802407B
:1017E800000002400000014080B483B000AF03460F
:1017F800FB710A4B0522DA62FA7913469B001344FF
:10180800074A82FB03125211DB17D21A034B5A63A1
:1018180000BF0C37BD465DF8047B704700000140EF
:101828001F85EB5180B500AFFFF728FBFFF74CFB96
:101838004FF4FA70FFF722FFFFF714FF00F001F8EA
:10184800FCE780B500AF4FF080431B8A9BB24FF096
:10185800804223F001039BB21382FFF746FB00BFCF
:1018680080BD000080B500AF164BD3F88830154A0C
:1018780043F47003C2F88830134B1B68124A43F0D4
:1018880001031360104B00229A600F4B1B680E4A2D
:1018980023F0847323F4803313600B4B0B4A5A6094
:1018A800094B1B68084A23F480231360064B002267
:1018B800DA6000F00DF8034B4FF000629A6000BF49
:1018C80080BD00BF00ED00E0003802401030002469
:1018D80080B483B000AF00237B6000233B60354BAE
:1018E8001B68344A43F480331360324B1B6803F49B
:1018F80000333B607B6801337B603B68002B03D17E
:101908007B68B3F5A04FF0D12A4B1B6803F4003372
:10191800002B02D001233B6001E000233B603B68C1
:10192800012B40D1234B1B6C224A43F08053136494
:10193800214B1B68204A43F4404313601D4B1D4A4A
:101948009B6893601B4B1B4A9B689360194B9B6871
:10195800184A43F480539360164B184A5A60154B43
:101968001B68144A43F08073136000BF114B1B6857
:1019780003F00073002BF9D0114B40F202721A6089
:101988000C4B9B680B4A23F003039360094B9B683D
:10199800084A43F00203936000BF064B9B6803F0BC
:1019A8000C03082BF9D100BF0C37BD465DF8047B4A
:1019B800704700BF003802400070004019544107CA
:1019C800003C02400D4885460D480E490E4A00234A
:1019D80002E0D458C4500433C4188C42F9D30B4ADB
:1019E8000B4C002301E013600432A242FBD3FFF743
:1019F80039FF00F011F8FFF715FFFEE7000001209E
:101A08000000002084040020B41B00088404002087
:101A1800D4040020FEE7000070B50D4E0D4D761B76
:101A2800B61006D00024013455F8043B9847A64266
:101A3800F9D1094E094D761B00F0A0F8B61006D072
:101A48000024013455F8043B9847A642F9D170BDEB
:101A5800A81B0008A81B0008B01B0008A81B00084A
:101A6800024B13B1024800F005B8704700000000AF
:101A7800891A0008002301461A46184600F01EB8C5
:101A880038B50A4C0A4D641BA4100AD004F18043EF
:101A9800013B05EB8305013C55F804399847002CB8
:101AA800F9D1BDE8384000F06FB800BFB41B00089A
:101AB800B01B0008704700BF704700BF2DE9F8430E
:101AC8002B4D0646286898460F469146FFF7F2FFC9
:101AD800284B1C68D4F84831002B3DD05A681F2A7F
:101AE8000DDC02F1010C16BB0232C3F804C02868F1
:101AF80043F82270FFF7E0FF0020BDE8F8831E4B93
:101B08007BB34FF4C870AFF30080034648B3D4F8F2
:101B180048210021C0E900214FF0010CC4F8480118
:101B28000A46C0F88811C0F88C11002EDCD003EBEF
:101B380082010124C1F88890D3F888019440204399
:101B4800022EC3F88801C1F80881CDD1D3F88C11D1
:101B58000C43C3F88C41C7E704F5A673C4F84831B1
:101B6800BCE72868FFF7A8FF4FF0FF30C5E700BFC4
:101B780080040020A41B000800000000F8B500BF86
:101B8800F8BC08BC9E467047F8B500BFF8BC08BC56
:041B98009E467047AE
:0C1B9C0050574D2E2E0D0A00580000205E
:081BA800691A0008BD010008E4
:041BB000990100088F
:101BB400CDCCCC3D0AD7233C000000000AD7A33C7F
:101BC400000020C1000020410000A0C00000A0408F
:101BD4000AD7233C000000000000000000000000C1
:101BE40000000000000000002D20202E20200D0AFF
:101BF400000000002D20202E20200D0A00000000EF
:101C04000100000001000000000000004403002067
:101C1400AC030020140400200000000000000000B9
:101C240000000000000000000000000000000000B0
:101C340000000000000000000000000000000000A0
:101C44000000000000000000000000000000000090
:101C54000000000000000000000000000000000080
:101C64000000000000000000000000000000000070
:101C74000000000000000000000000000000000060
:101C84000000000000000000000000000000000050
:101C94000000000000000000000000000000000040
:101CA4000000000000000000000000000000000030
:101CB40001000000000000000E33CDAB34126DE6CD
:101CC400ECDE05000B000000000000000000000036
:101CD4000000000000000000000000000000000000
:101CE40000000000000000000000000000000000F0
:101CF40000000000000000000000000000000000E0
:101D040000000000000000000000000000000000CF
:04203400B0040020D4
:04000005080019CD09
:00000001FF
